{
  "config" : {
    "chainId" : 1337,
    "berlinBlock" : 0,
    "qbft" : {
      "blockperiodseconds" : 2,
      "epochlength" : 30000,
      "requesttimeoutseconds" : 4
    }
  },
  "nonce" : "0x0",
  "timestamp" : "0x58ee40ba",
  "gasLimit" : "0x1fffffffffffff",
  "difficulty" : "0x1",
  "mixHash" : "0x63746963616c2062797a616e74696e65206661756c7420746f6c6572616e6365",
  "coinbase" : "0x0000000000000000000000000000000000000000",
  "alloc" : {
    "0x41c9e41a5ac82966819a59229753ef1ad6d98cf9": {
      "balance": "0x818a5f284f11b9253572325629db8bc15b0d1a98c6d59bd6d26a6a932868aa3b"
    },
    "0xFE3B557E8Fb62b89F4916B721be55cEb828dBd73": {
      "balance": "0x200000000000000000000000000000000000000000000000000000000000000"
    }
  },
  "extraData" : "0xf87aa00000000000000000000000000000000000000000000000000000000000000000f8549448c555fe1499dae15be850806db58c6ede2f01939441c9e41a5ac82966819a59229753ef1ad6d98cf9944d824f0a8a11e8c2972e8491aa0648d0a2243021945920595d5f200e21653e24ad72061e614c78167fc080c0"
}